{
  "contractName": "RideContract",
  "abi": [
    {
      "inputs": [],
      "payable": false,
      "stateMutability": "nonpayable",
      "type": "constructor"
    },
    {
      "anonymous": false,
      "inputs": [
        {
          "indexed": true,
          "internalType": "address",
          "name": "account",
          "type": "address"
        },
        {
          "indexed": false,
          "internalType": "int256",
          "name": "amount",
          "type": "int256"
        }
      ],
      "name": "BalanceChanged",
      "type": "event"
    },
    {
      "anonymous": false,
      "inputs": [
        {
          "indexed": true,
          "internalType": "uint256",
          "name": "rideId",
          "type": "uint256"
        },
        {
          "indexed": true,
          "internalType": "address",
          "name": "passenger",
          "type": "address"
        }
      ],
      "name": "PassengerAccepted",
      "type": "event"
    },
    {
      "anonymous": false,
      "inputs": [
        {
          "indexed": true,
          "internalType": "uint256",
          "name": "rideId",
          "type": "uint256"
        },
        {
          "indexed": true,
          "internalType": "address",
          "name": "passenger",
          "type": "address"
        }
      ],
      "name": "PassengerArrived",
      "type": "event"
    },
    {
      "anonymous": false,
      "inputs": [
        {
          "indexed": true,
          "internalType": "uint256",
          "name": "rideId",
          "type": "uint256"
        },
        {
          "indexed": true,
          "internalType": "address",
          "name": "passenger",
          "type": "address"
        }
      ],
      "name": "PassengerCancelled",
      "type": "event"
    },
    {
      "anonymous": false,
      "inputs": [
        {
          "indexed": true,
          "internalType": "uint256",
          "name": "rideId",
          "type": "uint256"
        },
        {
          "indexed": true,
          "internalType": "address",
          "name": "passenger",
          "type": "address"
        }
      ],
      "name": "PassengerDeclined",
      "type": "event"
    },
    {
      "anonymous": false,
      "inputs": [
        {
          "indexed": true,
          "internalType": "uint256",
          "name": "rideId",
          "type": "uint256"
        },
        {
          "indexed": true,
          "internalType": "address",
          "name": "passenger",
          "type": "address"
        },
        {
          "indexed": false,
          "internalType": "string",
          "name": "phoneNumber",
          "type": "string"
        },
        {
          "indexed": false,
          "internalType": "uint256",
          "name": "numOfPeople",
          "type": "uint256"
        },
        {
          "indexed": true,
          "internalType": "address",
          "name": "driver",
          "type": "address"
        }
      ],
      "name": "PassengerJoined",
      "type": "event"
    },
    {
      "anonymous": false,
      "inputs": [
        {
          "indexed": true,
          "internalType": "uint256",
          "name": "rideId",
          "type": "uint256"
        },
        {
          "indexed": true,
          "internalType": "address",
          "name": "driver",
          "type": "address"
        }
      ],
      "name": "RideCompleted",
      "type": "event"
    },
    {
      "anonymous": false,
      "inputs": [
        {
          "indexed": true,
          "internalType": "uint256",
          "name": "rideId",
          "type": "uint256"
        },
        {
          "indexed": true,
          "internalType": "address",
          "name": "driver",
          "type": "address"
        },
        {
          "indexed": false,
          "internalType": "string",
          "name": "startPoint",
          "type": "string"
        },
        {
          "indexed": false,
          "internalType": "string",
          "name": "endPoint",
          "type": "string"
        },
        {
          "indexed": false,
          "internalType": "uint256",
          "name": "fare",
          "type": "uint256"
        },
        {
          "indexed": false,
          "internalType": "uint256",
          "name": "startTime",
          "type": "uint256"
        },
        {
          "indexed": false,
          "internalType": "uint256",
          "name": "numOfSeats",
          "type": "uint256"
        }
      ],
      "name": "RideCreated",
      "type": "event"
    },
    {
      "constant": true,
      "inputs": [],
      "name": "balanceChangeCounter",
      "outputs": [
        {
          "internalType": "uint256",
          "name": "",
          "type": "uint256"
        }
      ],
      "payable": false,
      "stateMutability": "view",
      "type": "function"
    },
    {
      "constant": true,
      "inputs": [
        {
          "internalType": "address",
          "name": "",
          "type": "address"
        },
        {
          "internalType": "uint256",
          "name": "",
          "type": "uint256"
        }
      ],
      "name": "balanceChangeHistory",
      "outputs": [
        {
          "internalType": "uint256",
          "name": "",
          "type": "uint256"
        }
      ],
      "payable": false,
      "stateMutability": "view",
      "type": "function"
    },
    {
      "constant": true,
      "inputs": [
        {
          "internalType": "uint256",
          "name": "",
          "type": "uint256"
        }
      ],
      "name": "balanceChanges",
      "outputs": [
        {
          "internalType": "address",
          "name": "user",
          "type": "address"
        },
        {
          "internalType": "int256",
          "name": "amount",
          "type": "int256"
        },
        {
          "internalType": "int256",
          "name": "balanceBefore",
          "type": "int256"
        },
        {
          "internalType": "int256",
          "name": "balanceAfter",
          "type": "int256"
        },
        {
          "internalType": "uint256",
          "name": "timestamp",
          "type": "uint256"
        },
        {
          "internalType": "string",
          "name": "description",
          "type": "string"
        }
      ],
      "payable": false,
      "stateMutability": "view",
      "type": "function"
    },
    {
      "constant": true,
      "inputs": [
        {
          "internalType": "address",
          "name": "",
          "type": "address"
        }
      ],
      "name": "balances",
      "outputs": [
        {
          "internalType": "int256",
          "name": "",
          "type": "int256"
        }
      ],
      "payable": false,
      "stateMutability": "view",
      "type": "function"
    },
    {
      "constant": true,
      "inputs": [
        {
          "internalType": "uint256",
          "name": "",
          "type": "uint256"
        }
      ],
      "name": "numOfPendings",
      "outputs": [
        {
          "internalType": "uint256",
          "name": "",
          "type": "uint256"
        }
      ],
      "payable": false,
      "stateMutability": "view",
      "type": "function"
    },
    {
      "constant": true,
      "inputs": [
        {
          "internalType": "uint256",
          "name": "",
          "type": "uint256"
        },
        {
          "internalType": "uint256",
          "name": "",
          "type": "uint256"
        }
      ],
      "name": "passengers",
      "outputs": [
        {
          "internalType": "address payable",
          "name": "addr",
          "type": "address"
        },
        {
          "internalType": "string",
          "name": "phoneNumber",
          "type": "string"
        },
        {
          "internalType": "uint256",
          "name": "numOfPeople",
          "type": "uint256"
        },
        {
          "internalType": "uint256",
          "name": "verificationCode",
          "type": "uint256"
        },
        {
          "internalType": "bool",
          "name": "arrived",
          "type": "bool"
        }
      ],
      "payable": false,
      "stateMutability": "view",
      "type": "function"
    },
    {
      "constant": true,
      "inputs": [
        {
          "internalType": "uint256",
          "name": "",
          "type": "uint256"
        },
        {
          "internalType": "uint256",
          "name": "",
          "type": "uint256"
        }
      ],
      "name": "pendingPassengers",
      "outputs": [
        {
          "internalType": "address payable",
          "name": "addr",
          "type": "address"
        },
        {
          "internalType": "string",
          "name": "phoneNumber",
          "type": "string"
        },
        {
          "internalType": "uint256",
          "name": "numOfPeople",
          "type": "uint256"
        },
        {
          "internalType": "uint256",
          "name": "verificationCode",
          "type": "uint256"
        },
        {
          "internalType": "bool",
          "name": "arrived",
          "type": "bool"
        }
      ],
      "payable": false,
      "stateMutability": "view",
      "type": "function"
    },
    {
      "constant": true,
      "inputs": [],
      "name": "rideCount",
      "outputs": [
        {
          "internalType": "uint256",
          "name": "",
          "type": "uint256"
        }
      ],
      "payable": false,
      "stateMutability": "view",
      "type": "function"
    },
    {
      "constant": true,
      "inputs": [
        {
          "internalType": "uint256",
          "name": "",
          "type": "uint256"
        }
      ],
      "name": "rides",
      "outputs": [
        {
          "internalType": "uint256",
          "name": "id",
          "type": "uint256"
        },
        {
          "internalType": "address payable",
          "name": "driver",
          "type": "address"
        },
        {
          "internalType": "string",
          "name": "startPoint",
          "type": "string"
        },
        {
          "internalType": "string",
          "name": "endPoint",
          "type": "string"
        },
        {
          "internalType": "uint256",
          "name": "fare",
          "type": "uint256"
        },
        {
          "internalType": "uint256",
          "name": "startTime",
          "type": "uint256"
        },
        {
          "internalType": "uint256",
          "name": "numOfSeats",
          "type": "uint256"
        },
        {
          "internalType": "uint256",
          "name": "numOfPassengers",
          "type": "uint256"
        },
        {
          "internalType": "bool",
          "name": "isActive",
          "type": "bool"
        }
      ],
      "payable": false,
      "stateMutability": "view",
      "type": "function"
    },
    {
      "constant": true,
      "inputs": [
        {
          "internalType": "address",
          "name": "_driver",
          "type": "address"
        }
      ],
      "name": "getCreatedRides",
      "outputs": [
        {
          "internalType": "uint256[]",
          "name": "",
          "type": "uint256[]"
        }
      ],
      "payable": false,
      "stateMutability": "view",
      "type": "function"
    },
    {
      "constant": true,
      "inputs": [
        {
          "internalType": "address",
          "name": "_passenger",
          "type": "address"
        }
      ],
      "name": "getJoinedRides",
      "outputs": [
        {
          "internalType": "uint256[]",
          "name": "",
          "type": "uint256[]"
        }
      ],
      "payable": false,
      "stateMutability": "view",
      "type": "function"
    },
    {
      "constant": true,
      "inputs": [
        {
          "internalType": "uint256",
          "name": "_rideId",
          "type": "uint256"
        }
      ],
      "name": "getRideDetails",
      "outputs": [
        {
          "internalType": "string",
          "name": "",
          "type": "string"
        },
        {
          "internalType": "string",
          "name": "",
          "type": "string"
        },
        {
          "internalType": "uint256",
          "name": "",
          "type": "uint256"
        },
        {
          "internalType": "uint256",
          "name": "",
          "type": "uint256"
        },
        {
          "internalType": "bool",
          "name": "",
          "type": "bool"
        },
        {
          "internalType": "uint256",
          "name": "",
          "type": "uint256"
        },
        {
          "internalType": "uint256",
          "name": "",
          "type": "uint256"
        }
      ],
      "payable": false,
      "stateMutability": "view",
      "type": "function"
    },
    {
      "constant": true,
      "inputs": [
        {
          "internalType": "address",
          "name": "_account",
          "type": "address"
        }
      ],
      "name": "getHistory",
      "outputs": [
        {
          "internalType": "uint256[]",
          "name": "",
          "type": "uint256[]"
        }
      ],
      "payable": false,
      "stateMutability": "view",
      "type": "function"
    },
    {
      "constant": true,
      "inputs": [
        {
          "internalType": "address",
          "name": "_address",
          "type": "address"
        }
      ],
      "name": "getBalanceChangeHistory",
      "outputs": [
        {
          "internalType": "uint256[]",
          "name": "",
          "type": "uint256[]"
        }
      ],
      "payable": false,
      "stateMutability": "view",
      "type": "function"
    },
    {
      "constant": false,
      "inputs": [
        {
          "internalType": "string",
          "name": "_startPoint",
          "type": "string"
        },
        {
          "internalType": "string",
          "name": "_endPoint",
          "type": "string"
        },
        {
          "internalType": "uint256",
          "name": "_fare",
          "type": "uint256"
        },
        {
          "internalType": "uint256",
          "name": "_startTime",
          "type": "uint256"
        },
        {
          "internalType": "uint256",
          "name": "_numOfSeats",
          "type": "uint256"
        },
        {
          "internalType": "int256",
          "name": "balance",
          "type": "int256"
        }
      ],
      "name": "createRide",
      "outputs": [],
      "payable": false,
      "stateMutability": "nonpayable",
      "type": "function"
    },
    {
      "constant": false,
      "inputs": [
        {
          "internalType": "uint256",
          "name": "_rideId",
          "type": "uint256"
        },
        {
          "internalType": "string",
          "name": "_phoneNumber",
          "type": "string"
        },
        {
          "internalType": "uint256",
          "name": "_numberOfPeople",
          "type": "uint256"
        },
        {
          "internalType": "int256",
          "name": "balance",
          "type": "int256"
        }
      ],
      "name": "joinPendingRide",
      "outputs": [],
      "payable": true,
      "stateMutability": "payable",
      "type": "function"
    },
    {
      "constant": false,
      "inputs": [
        {
          "internalType": "uint256",
          "name": "_rideId",
          "type": "uint256"
        },
        {
          "internalType": "uint256",
          "name": "_passengerIndex",
          "type": "uint256"
        }
      ],
      "name": "acceptPassenger",
      "outputs": [],
      "payable": false,
      "stateMutability": "nonpayable",
      "type": "function"
    },
    {
      "constant": false,
      "inputs": [
        {
          "internalType": "uint256",
          "name": "_rideId",
          "type": "uint256"
        },
        {
          "internalType": "uint256",
          "name": "_passengerIndex",
          "type": "uint256"
        }
      ],
      "name": "declinePassenger",
      "outputs": [],
      "payable": false,
      "stateMutability": "nonpayable",
      "type": "function"
    },
    {
      "constant": false,
      "inputs": [
        {
          "internalType": "uint256",
          "name": "_rideId",
          "type": "uint256"
        },
        {
          "internalType": "address payable",
          "name": "_pendingPassenger",
          "type": "address"
        }
      ],
      "name": "cancelRide",
      "outputs": [],
      "payable": false,
      "stateMutability": "nonpayable",
      "type": "function"
    },
    {
      "constant": false,
      "inputs": [
        {
          "internalType": "uint256",
          "name": "_rideId",
          "type": "uint256"
        }
      ],
      "name": "completeRide",
      "outputs": [],
      "payable": false,
      "stateMutability": "nonpayable",
      "type": "function"
    },
    {
      "constant": false,
      "inputs": [
        {
          "internalType": "uint256",
          "name": "_rideId",
          "type": "uint256"
        }
      ],
      "name": "confirmDeclined",
      "outputs": [],
      "payable": false,
      "stateMutability": "nonpayable",
      "type": "function"
    },
    {
      "constant": false,
      "inputs": [
        {
          "internalType": "uint256",
          "name": "_rideId",
          "type": "uint256"
        }
      ],
      "name": "arrive",
      "outputs": [],
      "payable": false,
      "stateMutability": "nonpayable",
      "type": "function"
    },
    {
      "constant": false,
      "inputs": [
        {
          "internalType": "uint256",
          "name": "_rideId",
          "type": "uint256"
        }
      ],
      "name": "joinRide",
      "outputs": [],
      "payable": true,
      "stateMutability": "payable",
      "type": "function"
    },
    {
      "constant": true,
      "inputs": [
        {
          "internalType": "uint256",
          "name": "rideId",
          "type": "uint256"
        }
      ],
      "name": "getPassengers",
      "outputs": [
        {
          "internalType": "address payable[]",
          "name": "",
          "type": "address[]"
        }
      ],
      "payable": false,
      "stateMutability": "view",
      "type": "function"
    },
    {
      "constant": true,
      "inputs": [
        {
          "internalType": "uint256",
          "name": "_rideId",
          "type": "uint256"
        },
        {
          "internalType": "address",
          "name": "_passengerAddress",
          "type": "address"
        }
      ],
      "name": "isPassengerInPendingList",
      "outputs": [
        {
          "internalType": "uint256",
          "name": "",
          "type": "uint256"
        }
      ],
      "payable": false,
      "stateMutability": "view",
      "type": "function"
    },
    {
      "constant": true,
      "inputs": [
        {
          "internalType": "uint256",
          "name": "_rideId",
          "type": "uint256"
        },
        {
          "internalType": "address",
          "name": "_passengerAddress",
          "type": "address"
        }
      ],
      "name": "isPassengerInList",
      "outputs": [
        {
          "internalType": "uint256",
          "name": "",
          "type": "uint256"
        }
      ],
      "payable": false,
      "stateMutability": "view",
      "type": "function"
    }
  ],
  "bytecode": "0x608060405234801561001057600080fd5b5060008080556001556131c9806100286000396000f3fe6080604052600436106101815760003560e01c80638160f048116100d1578063b47c18831161008a578063c416dd0b11610064578063c416dd0b14610a79578063c941241014610aa3578063eac5ddd714610acd578063ec2011ad14610afd57610181565b8063b47c188314610953578063bbacd51414610968578063bcea27bd1461099857610181565b80638160f04814610789578063892cca8c146107c257806395fee328146107f55780639b4f941914610828578063a38b80f014610852578063b4230b0a1461087c57610181565b806345fb22001161013e5780636d4d31f2116101185780636d4d31f21461066557806371ca207c1461068f57806376ad1e1e14610741578063803968111461075657610181565b806345fb22001461045a5780634fc3877d146104dd5780635205f1121461051657610181565b806301f32206146101865780630252f904146101a55780630670a6db146101f05780631d6be93c14610229578063276f7f771461035857806327e235e314610427575b600080fd5b6101a36004803603602081101561019c57600080fd5b5035610b2d565b005b3480156101b157600080fd5b506101de600480360360408110156101c857600080fd5b506001600160a01b038135169060200135610cd7565b60408051918252519081900360200190f35b3480156101fc57600080fd5b506101de6004803603604081101561021357600080fd5b50803590602001356001600160a01b0316610d05565b34801561023557600080fd5b506102536004803603602081101561024c57600080fd5b5035610d83565b6040518080602001806020018881526020018781526020018615151515815260200185815260200184815260200183810383528a818151815260200191508051906020019080838360005b838110156102b657818101518382015260200161029e565b50505050905090810190601f1680156102e35780820380516001836020036101000a031916815260200191505b5083810382528951815289516020918201918b019080838360005b838110156103165781810151838201526020016102fe565b50505050905090810190601f1680156103435780820380516001836020036101000a031916815260200191505b50995050505050505050505060405180910390f35b34801561036457600080fd5b506103886004803603604081101561037b57600080fd5b508035906020013561101c565b604080516001600160a01b038716815290810184905260608101839052811515608082015260a06020808301828152875192840192909252865160c084019188019080838360005b838110156103e85781810151838201526020016103d0565b50505050905090810190601f1680156104155780820380516001836020036101000a031916815260200191505b50965050505050505060405180910390f35b34801561043357600080fd5b506101de6004803603602081101561044a57600080fd5b50356001600160a01b0316611101565b34801561046657600080fd5b5061048d6004803603602081101561047d57600080fd5b50356001600160a01b0316611113565b60408051602080825283518183015283519192839290830191858101910280838360005b838110156104c95781810151838201526020016104b1565b505050509050019250505060405180910390f35b3480156104e957600080fd5b506101a36004803603604081101561050057600080fd5b50803590602001356001600160a01b031661117f565b34801561052257600080fd5b506105406004803603602081101561053957600080fd5b5035611421565b604051808a8152602001896001600160a01b03166001600160a01b0316815260200180602001806020018881526020018781526020018681526020018581526020018415151515815260200183810383528a818151815260200191508051906020019080838360005b838110156105c15781810151838201526020016105a9565b50505050905090810190601f1680156105ee5780820380516001836020036101000a031916815260200191505b5083810382528951815289516020918201918b019080838360005b83811015610621578181015183820152602001610609565b50505050905090810190601f16801561064e5780820380516001836020036101000a031916815260200191505b509b50505050505050505050505060405180910390f35b34801561067157600080fd5b5061048d6004803603602081101561068857600080fd5b5035611589565b6101a3600480360360808110156106a557600080fd5b813591908101906040810160208201356401000000008111156106c757600080fd5b8201836020820111156106d957600080fd5b803590602001918460018302840111640100000000831117156106fb57600080fd5b91908080601f0160208091040260200160405190810160405280939291908181526020018383808284376000920191909152509295505082359350505060200135611640565b34801561074d57600080fd5b506101de6119dd565b34801561076257600080fd5b5061048d6004803603602081101561077957600080fd5b50356001600160a01b03166119e3565b34801561079557600080fd5b506101de600480360360408110156107ac57600080fd5b50803590602001356001600160a01b0316611a4d565b3480156107ce57600080fd5b5061048d600480360360208110156107e557600080fd5b50356001600160a01b0316611abf565b34801561080157600080fd5b5061048d6004803603602081101561081857600080fd5b50356001600160a01b0316611b29565b34801561083457600080fd5b506101a36004803603602081101561084b57600080fd5b5035611b93565b34801561085e57600080fd5b506101a36004803603602081101561087557600080fd5b5035611c9e565b34801561088857600080fd5b506108a66004803603602081101561089f57600080fd5b5035611cba565b60405180876001600160a01b03166001600160a01b0316815260200186815260200185815260200184815260200183815260200180602001828103825283818151815260200191508051906020019080838360005b838110156109135781810151838201526020016108fb565b50505050905090810190601f1680156109405780820380516001836020036101000a031916815260200191505b5097505050505050505060405180910390f35b34801561095f57600080fd5b506101de611d86565b34801561097457600080fd5b506103886004803603604081101561098b57600080fd5b5080359060200135611d8c565b3480156109a457600080fd5b506101a3600480360360c08110156109bb57600080fd5b8101906020810181356401000000008111156109d657600080fd5b8201836020820111156109e857600080fd5b80359060200191846001830284011164010000000083111715610a0a57600080fd5b919390929091602081019035640100000000811115610a2857600080fd5b820183602082011115610a3a57600080fd5b80359060200191846001830284011164010000000083111715610a5c57600080fd5b919350915080359060208101359060408101359060600135611da5565b348015610a8557600080fd5b506101a360048036036020811015610a9c57600080fd5b5035611eca565b348015610aaf57600080fd5b506101de60048036036020811015610ac657600080fd5b503561251e565b348015610ad957600080fd5b506101a360048036036040811015610af057600080fd5b5080359060200135612530565b348015610b0957600080fd5b506101a360048036036040811015610b2057600080fd5b508035906020013561293d565b600054811115610b76576040805162461bcd60e51b815260206004820152600f60248201526e125b9d985b1a59081c9a5919481251608a1b604482015290519081900360640190fd5b6000818152600560205260409020600101546001600160a01b0316331415610bcf5760405162461bcd60e51b81526004018080602001828103825260418152602001806131546041913960600191505060405180910390fd5b6000818152600560205260409020600681015460079091015410610c14576040805162461bcd60e51b8152602060048201526000602482015290519081900360640190fd5b600081815260056020526040902060040154670de0b6b3a7640000023414610c7b576040805162461bcd60e51b8152602060048201526015602482015274125b98dbdc9c9958dd0819985c9948185b5bdd5b9d605a1b604482015290519081900360640190fd5b6000818152600560209081526040808320600881018054600181810183559186528486200180546001600160a01b0319163390811790915560079092018054820190559084526003835290832080549182018155835291200155565b60096020528160005260406000208181548110610cf057fe5b90600052602060002001600091509150505481565b6000805b600084815260066020526040902054811015610d7757600084815260066020526040902080546001600160a01b038516919083908110610d4557fe5b60009182526020909120600590910201546001600160a01b03161415610d6f576001019050610d7d565b600101610d09565b60009150505b92915050565b60608060008060008060008088118015610d9f57506000548811155b610de2576040805162461bcd60e51b815260206004820152600f60248201526e125b9d985b1a59081c9a5919481251608a1b604482015290519081900360640190fd5b610dea612ef1565b600089815260056020908152604091829020825161014081018452815481526001808301546001600160a01b0316828501526002808401805487516101009482161594909402600019011691909104601f81018690048602830186018752808352929593949386019391929091830182828015610ea85780601f10610e7d57610100808354040283529160200191610ea8565b820191906000526020600020905b815481529060010190602001808311610e8b57829003601f168201915b505050918352505060038201805460408051602060026001851615610100026000190190941693909304601f8101849004840282018401909252818152938201939291830182828015610f3c5780601f10610f1157610100808354040283529160200191610f3c565b820191906000526020600020905b815481529060010190602001808311610f1f57829003601f168201915b505050505081526020016004820154815260200160058201548152602001600682015481526020016007820154815260200160088201805480602002602001604051908101604052809291908181526020018280548015610fc657602002820191906000526020600020905b81546001600160a01b03168152600190910190602001808311610fa8575b50505091835250506009919091015460ff16151560209091015260408101516060820151608083015160a084015161012085015160c086015160e090960151949f939e50919c509a509850919650945092505050565b6007602052816000526040600020818154811061103557fe5b600091825260209182902060059091020180546001808301805460408051601f60026000199685161561010002969096019093169490940491820187900487028401870190528083526001600160a01b039093169650929450928301828280156110e05780601f106110b5576101008083540402835291602001916110e0565b820191906000526020600020905b8154815290600101906020018083116110c357829003601f168201915b50505050600283015460038401546004909401549293909290915060ff1685565b600b6020526000908152604090205481565b6001600160a01b03811660009081526009602090815260409182902080548351818402810184019094528084526060939283018282801561117357602002820191906000526020600020905b81548152602001906001019080831161115f575b50505050509050919050565b600061118b8383611a4d565b9050806111c95760405162461bcd60e51b815260040180806020018281038252602581526020018061310d6025913960400191505060405180910390fd5b6000838152600760205260408120805460001984019081106111e757fe5b600091825260208083206005928302016002015487845291905260408083206004015490519102670de0b6b3a764000002925033916108fc841502918491818181858888f19350505050158015611242573d6000803e3d6000fd5b5061128333826040518060400160405280601b81526020017f43616e63656c2072696465206a6f696e696e6720726571756573740000000000815250612d31565b604051339085907f58d54330062419cad3cec1ba663980edde85e9d3f52f990fb2b4bc773ac3dd9590600090a36000848152600860209081526040808320805460001990810190915560079092529091208054909181019081106112e357fe5b906000526020600020906005020160076000868152602001908152602001600020600184038154811061131257fe5b60009182526020909120825460059092020180546001600160a01b0319166001600160a01b039092169190911781556001808301805461136992808501929160026000199282161561010002929092011604612f4f565b5060028281015490820155600380830154908201556004918201549101805460ff191660ff909216151591909117905560008481526007602052604090208054806113b057fe5b60008281526020812060056000199093019283020180546001600160a01b0319168155906113e16001830182612fd4565b5060006002820181905560038083018290556004909201805460ff19169055919092553381526020919091526040902061141b9085612e40565b50505050565b60056020908152600091825260409182902080546001808301546002808501805488516101009582161595909502600019011691909104601f810187900487028401870190975286835292956001600160a01b03909116949192918301828280156114cd5780601f106114a2576101008083540402835291602001916114cd565b820191906000526020600020905b8154815290600101906020018083116114b057829003601f168201915b5050505060038301805460408051602060026001851615610100026000190190941693909304601f810184900484028201840190925281815294959493509083018282801561155d5780601f106115325761010080835404028352916020019161155d565b820191906000526020600020905b81548152906001019060200180831161154057829003601f168201915b505050600484015460058501546006860154600787015460099097015495969295919450925060ff1689565b60606000548211156115d4576040805162461bcd60e51b815260206004820152600f60248201526e125b9d985b1a59081c9a5919481251608a1b604482015290519081900360640190fd5b6000828152600560209081526040918290206008018054835181840281018401909452808452909183018282801561117357602002820191906000526020600020905b81546001600160a01b031681526001909101906020018083116116175750505050509050919050565b600054841115611689576040805162461bcd60e51b815260206004820152600f60248201526e125b9d985b1a59081c9a5919481251608a1b604482015290519081900360640190fd5b6000848152600560205260409020600101546001600160a01b03163314156116e25760405162461bcd60e51b81526004018080602001828103825260418152602001806131546041913960600191505060405180910390fd5b6000848152600560205260409020600681015460079091015410611727576040805162461bcd60e51b8152602060048201526000602482015290519081900360640190fd5b60006117338533611a4d565b1461176f5760405162461bcd60e51b815260040180806020018281038252602f8152602001806130de602f913960400191505060405180910390fd5b60056000858152602001908152602001600020600401548202670de0b6b3a76400000234146117dd576040805162461bcd60e51b8152602060048201526015602482015274125b98dbdc9c9958dd0819985c9948185b5bdd5b9d605a1b604482015290519081900360640190fd5b60008481526008602090815260408083208054600190810190915560078352818420825160a0810184523381528085018981529381018890526060810186905260808101869052815480840180845592875295859020815160059097020180546001600160a01b0319166001600160a01b03909716969096178655925180519195939461186f93850192910190613018565b5060408281015160028301556060808401516003808501919091556080909401516004909301805460ff1916931515939093179092553360008181526020948552828120805460018181018355918352868320018b90558a825260058652838220015483518087018a90528481528a519481019490945289516001600160a01b03909116965091948a947f868f82ae3b0855659ed04d599593110f19d37fc77e584523d642130e8ef38f97948b948b949193849384019290870191908190849084905b8381101561194a578181015183820152602001611932565b50505050905090810190601f1680156119775780820380516001836020036101000a031916815260200191505b50935050505060405180910390a46119c833346000036040518060400160405280601881526020017f5265717565737420666f72206a6f696e696e6720726964650000000000000000815250612d31565b336000908152600b6020526040902055505050565b60015481565b6001600160a01b038116600090815260046020908152604091829020805483518184028101840190945280845260609392830182828015611173576020028201919060005260206000209081548152602001906001019080831161115f5750505050509050919050565b6000805b600084815260076020526040902054811015610d7757600084815260076020526040902080546001600160a01b038516919083908110611a8d57fe5b60009182526020909120600590910201546001600160a01b03161415611ab7576001019050610d7d565b600101611a51565b6001600160a01b038116600090815260036020908152604091829020805483518184028101840190945280845260609392830182828015611173576020028201919060005260206000209081548152602001906001019080831161115f5750505050509050919050565b6001600160a01b038116600090815260026020908152604091829020805483518184028101840190945280845260609392830182828015611173576020028201919060005260206000209081548152602001906001019080831161115f5750505050509050919050565b60005b600082815260056020526040902060080154811015611c35576000828152600660205260409020805433919083908110611bcc57fe5b60009182526020909120600590910201546001600160a01b03161415611c2d57600082815260066020526040902080546001919083908110611c0a57fe5b60009182526020909120600590910201600401805460ff19169115159190911790555b600101611b96565b50336000908152600360205260409020611c4f9082612e40565b33600081815260046020908152604080832080546001810182559084529183209091018490555183917fe7ea48a4921ce71d402b33c9540d78121bb3bf692233144599ecbdd102c0d85291a350565b336000908152600360205260409020611cb79082612e40565b50565b600a602090815260009182526040918290208054600180830154600280850154600386015460048701546005880180548b516101009882161598909802600019011694909404601f81018a90048a0287018a01909a528986526001600160a01b0390961698939791969095949093909291830182828015611d7c5780601f10611d5157610100808354040283529160200191611d7c565b820191906000526020600020905b815481529060010190602001808311611d5f57829003601f168201915b5050505050905086565b60005481565b6006602052816000526040600020818154811061103557fe5b60008411611dfa576040805162461bcd60e51b815260206004820152601e60248201527f46617265206d7573742062652067726561746572207468616e207a65726f0000604482015290519081900360640190fd5b600080546001019055611e0b612ef1565b60005481523360208083019190915260408051601f8b01839004830281018301909152898152908a908a908190840183828082843760009201919091525050505060408083019190915280516020601f890181900481028201810190925287815290889088908190840183828082843760009201829052506060860194909452505050608082019590955260a0810193909352600161012084015260c083019190915260e0909101829052338252600b60205260409091205550505050565b600054811115611f13576040805162461bcd60e51b815260206004820152600f60248201526e125b9d985b1a59081c9a5919481251608a1b604482015290519081900360640190fd5b6000818152600560205260409020600101546001600160a01b03163314611f6b5760405162461bcd60e51b81526004018080602001828103825260228152602001806131326022913960400191505060405180910390fd5b6000818152600560205260409020600981015460ff16611fc7576040805162461bcd60e51b815260206004820152601260248201527152696465206973206e6f742061637469766560701b604482015290519081900360640190fd5b60098101805460ff19169055336000908152600260205260409020611fec9083612e40565b6000805b60088301548110156121c957600084815260066020526040902080548290811061201657fe5b600091825260209091206004600590920201015460ff161561206757600084815260066020526040902080548290811061204c57fe5b9060005260206000209060050201600201548201915061216d565b600084815260066020526040812080548390811061208157fe5b6000918252602080832060059092029091015487835260069091526040822080546001600160a01b03909216935090849081106120ba57fe5b906000526020600020906005020160020154600560008881526020019081526020016000206004015402670de0b6b3a7640000029050816001600160a01b03166108fc829081150290604051600060405180830381858888f19350505050158015612129573d6000803e3d6000fd5b5061216a82826040518060400160405280601e81526020017f4a6f696e20636f6d706c6574656420776974686f7574206172726976616c0000815250612d31565b50505b6121c16003600060066000888152602001908152602001600020848154811061219257fe5b600091825260208083206005909202909101546001600160a01b03168352820192909252604001902085612e40565b600101611ff0565b5060005b6000848152600760205260409020548110156124555760008481526007602052604081208054839081106121fd57fe5b60009182526020808320600592830201548884529181526040808420600401546007909252832080546001600160a01b03909316945090918590811061223f57fe5b90600052602060002090600502016002015402670de0b6b3a7640000029050816001600160a01b03166108fc829081150290604051600060405180830381858888f19350505050158015612297573d6000803e3d6000fd5b506122c982826040518060400160405280600e81526020016d129bda5b8818dbdb5c1b195d195960921b815250612d31565b6000868152600860209081526040808320805460001990810190915560079092529091208054909181019081106122fc57fe5b906000526020600020906005020160076000888152602001908152602001600020848154811061232857fe5b60009182526020909120825460059092020180546001600160a01b0319166001600160a01b039092169190911781556001808301805461237f92808501929160026000199282161561010002929092011604612f4f565b5060028281015490820155600380830154908201556004918201549101805460ff191660ff909216151591909117905560008681526007602052604090208054806123c657fe5b60008281526020812060056000199093019283020180546001600160a01b0319168155906123f76001830182612fd4565b50600060028201819055600382018190556004909101805460ff1916905591556040516001600160a01b0384169188917f26405425e7d10e372e99f656c9d921664b31c50157b9f477d5524451f23b9bcf9190a350506001016121cd565b506004820154604051908202670de0b6b3a7640000029033906108fc8315029083906000818181858888f19350505050158015612496573d6000803e3d6000fd5b506124cc33826040518060400160405280601281526020017157697468647261772072696465206661726560701b815250612d31565b33600081815260046020908152604080832080546001810182559084529183209091018790555186917f293561dd13070ed4d83fa8683b4a93e939f52e0bb5fa61b0d25cc576bf43787391a350505050565b60086020526000908152604090205481565b6000828152600760205260409020548110612592576040805162461bcd60e51b815260206004820152601c60248201527f50617373656e67657220696e646578206f7574206f662072616e676500000000604482015290519081900360640190fd5b61259a613086565b60008381526007602052604090208054839081106125b457fe5b60009182526020918290206040805160a081018252600590930290910180546001600160a01b03168352600180820180548451601f600260001995841615610100029590950190921693909304908101879004870283018701909452838252939491938583019391929091908301828280156126715780601f1061264657610100808354040283529160200191612671565b820191906000526020600020905b81548152906001019060200180831161265457829003601f168201915b50505091835250506002820154602080830191909152600383015460408084019190915260049093015460ff1615156060928301528251428183015233831b818501526054808201899052845180830390910181526074909101845280519082012091840182905260008781526005808352848220865160089091018054600180820183559185528585200180546001600160a01b03199081166001600160a01b03948516179091558b855260068652968420805480830180835591865294869020895195909402909301805490971693909116929092178555858301518051969750939590948794909361276b93850192910190613018565b506040828101516002830155606083015160038301556080909201516004909101805460ff191691151591909117905583810151600087815260056020908152838220600790810180549094019093556008815283822080546000199081019091559290529190912080549092509081019081106127e557fe5b906000526020600020906005020160076000868152602001908152602001600020848154811061281157fe5b60009182526020909120825460059092020180546001600160a01b0319166001600160a01b039092169190911781556001808301805461286892808501929160026000199282161561010002929092011604612f4f565b5060028281015490820155600380830154908201556004918201549101805460ff191660ff909216151591909117905560008481526007602052604090208054806128af57fe5b60008281526020812060056000199093019283020180546001600160a01b0319168155906128e06001830182612fd4565b50600060028201819055600382018190556004909101805460ff19169055915582516040516001600160a01b039091169186917f9b8c206290be4fb6bf89e37fc9ac8e18ab1894b3fd8c9bf1993b00d40d6dd0339190a350505050565b600054821115612986576040805162461bcd60e51b815260206004820152600f60248201526e125b9d985b1a59081c9a5919481251608a1b604482015290519081900360640190fd5b6000828152600560205260409020600101546001600160a01b031633146129de5760405162461bcd60e51b81526004018080602001828103825260228152602001806131326022913960400191505060405180910390fd5b6129e6613086565b6000838152600760205260409020805483908110612a0057fe5b60009182526020918290206040805160a081018252600590930290910180546001600160a01b03168352600180820180548451601f60026000199584161561010002959095019092169390930490810187900487028301870190945283825293949193858301939192909190830182828015612abd5780601f10612a9257610100808354040283529160200191612abd565b820191906000526020600020905b815481529060010190602001808311612aa057829003601f168201915b5050505050815260200160028201548152602001600382015481526020016004820160009054906101000a900460ff161515151581525050905060008160000151905060006005600086815260200190815260200160002060040154836040015102670de0b6b3a7640000029050816001600160a01b03166108fc829081150290604051600060405180830381858888f19350505050158015612b64573d6000803e3d6000fd5b50612ba582826040518060400160405280601881526020017f4a6f696e696e672072657175657374206465636c696e65640000000000000000815250612d31565b600085815260086020908152604080832080546000199081019091556007909252909120805490918101908110612bd857fe5b9060005260206000209060050201600760008781526020019081526020016000208581548110612c0457fe5b60009182526020909120825460059092020180546001600160a01b0319166001600160a01b0390921691909117815560018083018054612c5b92808501929160026000199282161561010002929092011604612f4f565b5060028281015490820155600380830154908201556004918201549101805460ff191660ff90921615159190911790556000858152600760205260409020805480612ca257fe5b60008281526020812060056000199093019283020180546001600160a01b031916815590612cd36001830182612fd4565b50600060028201819055600382018190556004909101805460ff19169055915583516040516001600160a01b039091169187917f26405425e7d10e372e99f656c9d921664b31c50157b9f477d5524451f23b9bcf9190a35050505050565b6001600160a01b038381166000818152600b6020908152604080832080548801815560018054810180825560098552838620805480840182559087528587200155825160c081018452958652858401898152915489810387850190815260608801918252426080890190815260a089018b815284548952600a885295909720885181546001600160a01b0319169a16999099178955925191880191909155905160028701555160038601559151600485015590518051929392612dfa9260058501920190613018565b50506040805184815290516001600160a01b03861692507f3ff2d899473ac1b863e774d16dcdcdcbe0b40d9909794367ccbea198f37a79769181900360200190a2505050565b60005b8254811015612eec5781838281548110612e5957fe5b90600052602060002001541415612ee457825483906000198101908110612e7c57fe5b9060005260206000200154838281548110612e9357fe5b600091825260209091200155825483906000198101908110612eb157fe5b906000526020600020016000905582805480612ec957fe5b60019003818190600052602060002001600090559055612eec565b600101612e43565b505050565b6040518061014001604052806000815260200160006001600160a01b03168152602001606081526020016060815260200160008152602001600081526020016000815260200160008152602001606081526020016000151581525090565b828054600181600116156101000203166002900490600052602060002090601f016020900481019282601f10612f885780548555612fc4565b82800160010185558215612fc457600052602060002091601f016020900482015b82811115612fc4578254825591600101919060010190612fa9565b50612fd09291506130c0565b5090565b50805460018160011615610100020316600290046000825580601f10612ffa5750611cb7565b601f016020900490600052602060002090810190611cb791906130c0565b828054600181600116156101000203166002900490600052602060002090601f016020900481019282601f1061305957805160ff1916838001178555612fc4565b82800160010185558215612fc4579182015b82811115612fc457825182559160200191906001019061306b565b6040518060a0016040528060006001600160a01b031681526020016060815260200160008152602001600081526020016000151581525090565b6130da91905b80821115612fd057600081556001016130c6565b9056fe4a6f696e20526964653a2050617373656e67657220697320616c726561647920696e2070656e64696e67206c69737450617373656e676572206973206e6f7420696e207468652070656e64696e67206c697374204f6e6c79206472697665722063616e2063616c6c20746869732066756e6374696f6e4a6f696e20526964653a20546869732069732064726976657220616464726573732c207468652072696465206e65656420612070617373656e676572206a6f696ea265627a7a72315820aa175f1b05eaca115a3e3bde9f7a02d31d236fcddde4cbc8b23c21c4aac7548f64736f6c63430005100032",
  "source": "// SPDX-License-Identifier: MIT\n//pragma solidity >=0.4.22 <0.9.0;\npragma solidity ^0.5.0;\ncontract RideContract {\n    uint public rideCount;\n    uint public balanceChangeCounter;\n\n    struct Ride {\n        uint id; \n        address payable driver; \n        string startPoint; //departure\n        string endPoint;    //destination\n        uint256 fare;   \n        uint256 startTime;\n        uint numOfSeats; \n        uint numOfPassengers; \n        address payable[] passengers;\n        bool isActive;\n    }\n  \n    //cu trc thng tin khch hng\n    struct Passenger {\n        address payable addr; \n        string phoneNumber;\n        uint numOfPeople ; \n        uint256 verificationCode;\n        bool arrived; \n      \n\n    }\n\n\n    struct BalanceChange {\n        address user;           \n        int256 amount;          \n        int256 balanceBefore;   \n        int256 balanceAfter;    \n        uint256 timestamp;      \n        string description;     \n    }\n\n\n    mapping(address => uint[]) private createdRides; \n    mapping(address => uint[]) private joinedRides; \n    mapping(address => uint[]) private history;\n    mapping(uint => Ride) public rides;\n    mapping(uint =>  Passenger []) public passengers;\n    mapping(uint => Passenger[]) public pendingPassengers;\n    mapping(uint => uint) public numOfPendings; \n    mapping(address => uint[]) public balanceChangeHistory;\n    mapping (uint => BalanceChange) public balanceChanges;\n    // Mapping tng a ch ti khon n s d\n    \n    mapping(address => int256) public balances;\n\n\n    event RideCreated(uint indexed rideId, address indexed driver, string startPoint, string endPoint, uint256 fare, uint256 startTime, uint numOfSeats);\n    event PassengerJoined(uint indexed rideId, address indexed passenger, string phoneNumber, uint numOfPeople, address indexed driver);\n    event PassengerCancelled(uint indexed rideId, address indexed passenger);\n    event RideCompleted(uint indexed rideId, address indexed driver);\n    event PassengerArrived(uint indexed rideId, address indexed passenger);\n    event PassengerAccepted(uint indexed rideId, address indexed passenger);\n    event PassengerDeclined(uint indexed rideId, address indexed passenger);\n    // Khai bo s kin\n    event BalanceChanged(address indexed account, int256 amount);\n\n\n\n    constructor() public {\n        // createRide(\"Start Point\", \"End Point\", 100); \n        rideCount = 0;\n        balanceChangeCounter = 0;\n       \n       \n    }\n    function getCreatedRides(address _driver) external view returns (uint[] memory) {\n        return createdRides[_driver];\n    }\n\n    function getJoinedRides(address _passenger) external view returns (uint[] memory) {\n        return joinedRides[_passenger];\n    }\n    function getRideDetails(uint _rideId) external view returns (string memory, string memory, uint256, uint256, bool, uint256, uint256) {\n        require(_rideId > 0 && _rideId <= rideCount, \"Invalid ride ID\");\n        Ride memory ride = rides[_rideId];\n        return (ride.startPoint, ride.endPoint, ride.fare, ride.startTime, ride.isActive, ride.numOfSeats, ride.numOfPassengers);\n    }\n    function getHistory(address _account) external view returns (uint[] memory) {\n        return history[_account];\n    }\n\n    function getBalanceChangeHistory(address _address) external view returns (uint[] memory) {\n        return balanceChangeHistory[_address];\n    }\n\n    // function withdrawFunds(address payable _receiver, uint256 _amount) internal {\n    // (bool success, ) = _receiver.call.value(_amount)(\"\");\n    // require(success, \"Transfer failed.\");\n    // }\n\n    function createRide(string calldata _startPoint, string calldata _endPoint, uint256 _fare, uint256 _startTime, uint _numOfSeats, int256 balance) external {\n        require(_fare > 0, \"Fare must be greater than zero\");\n        rideCount++; // Tng s lng chuyn xe\n\n        Ride memory newRide;\n        newRide.id = rideCount;\n        newRide.driver = msg.sender;\n        newRide.startPoint = _startPoint;\n        newRide.endPoint = _endPoint;\n        newRide.fare = _fare;\n        newRide.startTime = _startTime;\n        newRide.isActive = true;\n        newRide.numOfSeats = _numOfSeats; \n        newRide.passengers ;\n        newRide.numOfPassengers = 0;\n        balances[msg.sender] = balance;\n    }\n    function joinPendingRide(uint _rideId, string memory _phoneNumber, uint256 _numberOfPeople, int256 balance) public payable{\n        require(_rideId <= rideCount, \"Invalid ride ID\");\n        require(msg.sender != rides[_rideId].driver, \"Join Ride: This is driver address, the ride need a passenger join\");\n        //kim tra nu cn  ch  thm hnh khch vo pending\n        require(rides[_rideId].numOfPassengers < rides[_rideId].numOfSeats, \"\");\n        //kim tra thm hnh khch   nm trong danh sch pending ca chuyn  cha\n        require(isPassengerInPendingList(_rideId, msg.sender)==uint(0), \"Join Ride: Passenger is already in pending list\");\n        require(msg.value == _numberOfPeople*rides[_rideId].fare*1e18, \"Incorrect fare amount\");\n         numOfPendings[_rideId]++; //tng lng khch trong danh sch ch \n        pendingPassengers[_rideId].push(Passenger(msg.sender, _phoneNumber, _numberOfPeople, 0, false));\n       \n        joinedRides[msg.sender].push(_rideId);\n        emit PassengerJoined(_rideId, msg.sender, _phoneNumber, _numberOfPeople,rides[_rideId].driver);\n        addBalanceChange(msg.sender, -int256(msg.value), \"Request for joining ride\");\n\n        balances[msg.sender] = balance;\n    }\n  \n    function acceptPassenger(uint _rideId, uint _passengerIndex) public {\n        require(_passengerIndex < pendingPassengers[_rideId].length, \"Passenger index out of range\");\n        \n        Passenger memory passenger = pendingPassengers[_rideId][_passengerIndex];\n        //i m code\n        uint256 randomCode = uint256(keccak256(abi.encodePacked(block.timestamp, msg.sender, _rideId)));\n        passenger.verificationCode = randomCode;\n        rides[_rideId].passengers.push(passenger.addr);\n        passengers[_rideId].push(passenger);\n        rides[_rideId].numOfPassengers += passenger.numOfPeople;\n         //xo hnh khch  khi pendings\n        numOfPendings[_rideId]--;\n        pendingPassengers[_rideId][_passengerIndex] = pendingPassengers[_rideId][pendingPassengers[_rideId].length - 1];\n        // Gim  di ca mng i mt\n        pendingPassengers[_rideId].pop();\n        emit PassengerAccepted(_rideId, passenger.addr);\n    }\n\n    function declinePassenger(uint _rideId, uint _passengerIndex) public {\n        require(_rideId <= rideCount, \"Invalid ride ID\");\n        require(msg.sender == rides[_rideId].driver, \"Only driver can call this function\");\n        //hon li tin cho hnh khch \n        Passenger memory passenger = pendingPassengers[_rideId][_passengerIndex];\n        address payable passengerAddr = passenger.addr;\n        uint totalFare = passenger.numOfPeople*rides[_rideId].fare*1e18;\n        passengerAddr.transfer(totalFare);\n        addBalanceChange(passengerAddr, int256(totalFare), \"Joining request declined\");\n        numOfPendings[_rideId]--;\n        pendingPassengers[_rideId][_passengerIndex] = pendingPassengers[_rideId][pendingPassengers[_rideId].length - 1];\n        // Gim  di ca mng i mt\n        pendingPassengers[_rideId].pop();\n        emit PassengerDeclined(_rideId, passenger.addr);\n  \n        \n    }\n\n    function cancelRide(uint256 _rideId,  address payable _pendingPassenger) external {\n        //Hnh khch  cn nm trong pending, ngha l cha c ti x chp nhn\n        uint pendingPassengerId = isPassengerInPendingList(_rideId, _pendingPassenger);\n        require(pendingPassengerId != uint(0), \"Passenger is not in the pending list \"); \n         //tr li tin cho hnh khch \n         uint256  totalFare = rides[_rideId].fare*pendingPassengers[_rideId][pendingPassengerId-1].numOfPeople*1e18;\n        (msg.sender).transfer(totalFare);\n        \n        addBalanceChange(msg.sender, int256(totalFare), \"Cancel ride joining request\");\n       //pht s kin hnh khch hu chuyn\n        emit PassengerCancelled(_rideId, msg.sender);\n         //xo hnh khch  khi pendings\n        numOfPendings[_rideId]--;\n        pendingPassengers[_rideId][pendingPassengerId-1] = pendingPassengers[_rideId][pendingPassengers[_rideId].length - 1];\n        // Gim  di ca mng i mt\n        pendingPassengers[_rideId].pop();\n\n        removeRideFromList(joinedRides[msg.sender], _rideId);\n\n\n\n    }\n    function completeRide(uint256 _rideId) external {\n        require(_rideId <= rideCount, \"Invalid ride ID\");\n        require(msg.sender == rides[_rideId].driver, \"Only driver can call this function\");\n        Ride storage ride = rides[_rideId];\n        require(ride.isActive, \"Ride is not active\");\n\n        \n\n        // Deactivate ride\n        ride.isActive = false;\n\n        removeRideFromList(createdRides[msg.sender], _rideId);\n        \n        uint numOfArrivals = 0;\n        for (uint i = 0; i < ride.passengers.length; i++) {\n           if (passengers[_rideId][i].arrived) numOfArrivals +=passengers[_rideId][i].numOfPeople ;\n           else {\n                // Hon tr tin cho hnh khch trong chuyn xe nhng khng bm arrive\n                address payable passengerAddr = passengers[_rideId][i].addr;\n                uint totalFare = rides[_rideId].fare*passengers[_rideId][i].numOfPeople*1e18;\n                passengerAddr.transfer(totalFare);\n                addBalanceChange(passengerAddr, int256(totalFare), \"Join completed without arrival\");\n\n           }\n           removeRideFromList(joinedRides[passengers[_rideId][i].addr], _rideId);\n        }\n        for(uint i = 0 ; i < pendingPassengers[_rideId].length ; i++){\n            address payable passengerAddr = pendingPassengers[_rideId][i].addr;\n            uint totalFare = pendingPassengers[_rideId][i].numOfPeople*rides[_rideId].fare*1e18;\n            passengerAddr.transfer(totalFare);\n            //thm vo lch s bin ng s d\n            addBalanceChange(passengerAddr, int256(totalFare), \"Join completed\");\n            numOfPendings[_rideId]--;\n            pendingPassengers[_rideId][i] = pendingPassengers[_rideId][pendingPassengers[_rideId].length - 1];\n            pendingPassengers[_rideId].pop();\n            emit PassengerDeclined(_rideId, passengerAddr);\n\n        }\n\n        uint256 totalFare = ride.fare * numOfArrivals *1e18;\n        msg.sender.transfer(totalFare); \n        addBalanceChange(msg.sender, int256(totalFare), \"Withdraw ride fare\");\n        \n        history[msg.sender].push(_rideId);\n        emit RideCompleted(_rideId, msg.sender);\n\n    }\n    function confirmDeclined(uint _rideId) external {\n        removeRideFromList(joinedRides[msg.sender], _rideId);\n    }\n    function arrive(uint256 _rideId) external {\n        \n        for (uint i = 0; i < rides[_rideId].passengers.length; i++){\n            if(passengers[_rideId][i].addr == msg.sender){\n                passengers[_rideId][i].arrived =true;\n            }\n        }\n        \n        removeRideFromList(joinedRides[msg.sender], _rideId);\n\n\n        history[msg.sender].push(_rideId);\n       \n        emit PassengerArrived(_rideId, msg.sender);\n\n\n    }\n\n    function generateVerificationCode() private view returns (uint256) {\n        return uint256(keccak256(abi.encodePacked(block.timestamp, block.difficulty))) % 9000 + 1000;\n    }\n    \n    //2. Hm ti x chp nhn hnh khch v to m xc nhn\n    // function acceptPassenger(uint _rideId, address _passenger) public {\n    //     Passenger storage passenger = pendingPassengers[_passenger][_rideId];\n    //     require(!passenger.accepted, \"Passenger already accepted\");\n    //     passenger.verificationCode = generateVerificationCode();\n    //     passenger.accepted = true;\n    // }\n    //3. Driver t chi hnh khch\n    // function rejectPendingPassenger(uint _rideId, address payable _passenger) public {\n    //     // Kim tra xem ngi gi hm c phi l ti x ca chuyn i khng\n    //     require(msg.sender == rides[_rideId].driver, \"Only driver can reject pending passenger\");\n\n    //     // Kim tra xem hnh khch c tn ti trong danh sch hng i khng\n    //     require(pendingPassengers[_passenger][_rideId].id == _rideId, \"Passenger not found in pending list\");\n\n    //     // Hon tr tin  gi ca hnh khch\n    //     uint256 fareAmount = pendingPassengers[_passenger][_rideId].numOfPeople * rides[_rideId].fare * 1e18;\n    //    withdrawFunds(_passenger, fareAmount);\n\n    //     // Xa hnh khch khi danh sch hng i\n    //     delete pendingPassengers[_passenger][_rideId];\n    // }\n\n    //4. Hm hnh khch nhp m xc nhn v tham gia chuyn i\n    // function enterVerificationCode(uint _rideId, uint256 _verificationCode) public {\n    //     Passenger storage passenger = pendingPassengers[msg.sender][_rideId];\n    //     require(passenger.accepted, \"Passenger not accepted yet\");\n    //     require(passenger.verificationCode == _verificationCode, \"Incorrect verification code\");\n    //     // Thm hnh khch vo danh sch ca chuyn i\n    //     addPassenger(_rideId, passenger.phoneNumber, passenger.numOfPeople);\n    //     // Xa thng tin hnh khch khi danh sch pending\n    //     delete pendingPassengers[msg.sender][_rideId];\n    // }\n\n    \n    // Hm ny b\n    //khi ngi dng nhn join vo chuyn c th i\n    function joinRide(uint256 _rideId) external payable {\n        require(_rideId <= rideCount, \"Invalid ride ID\");\n        require(msg.sender != rides[_rideId].driver, \"Join Ride: This is driver address, the ride need a passenger join\");\n        //kim tra nu cn  ch  thm hnh khch vapf \n        require(rides[_rideId].numOfPassengers < rides[_rideId].numOfSeats, \"\");\n        require(msg.value == rides[_rideId].fare*1e18, \"Incorrect fare amount\");\n        \n        // thm ti khon ca hnh khch vo danh sch hnh khch ca chuyn\n        rides[_rideId].passengers.push(msg.sender);\n        rides[_rideId].numOfPassengers ++ ; \n\n       \n        // Thm chuyn xe vo danh sch chuyn i  tham gia ca hnh khch\n        joinedRides[msg.sender].push(_rideId);\n        \n\n\n    }\n\n    \n    function getPassengers(uint rideId) external view returns (address payable[] memory) {\n        require(rideId <= rideCount, \"Invalid ride ID\");\n        return rides[rideId].passengers;\n    }\n\n    // Hm  xo mt chuyn i khi mt danh sch chuyn i\n    function removeRideFromList(uint[] storage list, uint256 _rideId) private {\n        for (uint i = 0; i < list.length; i++) {\n            if (list[i] == _rideId) {\n                list[i] = list[list.length - 1];\n                delete list[list.length - 1];\n                list.pop();\n                break;\n            }\n        }\n    }\n\n    // Kim tra xem mt hnh khch  nm trong danh sch pending ca chuyn i  cha  trnh join 2 ln\n    function isPassengerInPendingList(uint _rideId, address _passengerAddress) public view returns(uint) {\n        uint i;\n        for ( i = 0; i < pendingPassengers[_rideId].length; i++) {\n            if (pendingPassengers[_rideId][i].addr== _passengerAddress) {\n                return i+1; // Hnh khch  nm trong danh sch pending\n            }\n        }\n        return uint(0); // Hnh khch cha nm trong danh sch pending\n    }\n    \n    // Kim tra xem mt hnh khch  nm trong danh sch khch ca chuyn i \n    function isPassengerInList(uint _rideId, address _passengerAddress) public view returns(uint) {\n        uint i;\n        for ( i = 0; i < passengers[_rideId].length; i++) {\n            if (passengers[_rideId][i].addr== _passengerAddress) {\n                return i+1; // Hnh khch  nm trong danh sch pending\n            }\n        }\n        return uint(0); // Hnh khch cha nm trong danh sch pending\n    }\n\n    // Hm  thm lch s thay i s d\n    function addBalanceChange(address _user, int256 _amount, string memory _description) internal {\n        // Thm s tin  thay i vo s d ca ti khon\n        balances[_user] += _amount;\n        \n        balanceChangeCounter ++;\n        // Ghi li lch s thay i s d\n        balanceChangeHistory[_user].push(balanceChangeCounter);\n        balanceChanges[balanceChangeCounter] =  BalanceChange({\n            user: _user,\n            amount: _amount,\n            balanceBefore: balances[_user] - _amount,\n            balanceAfter: balances[_user],\n            timestamp: block.timestamp,\n            description: _description\n           \n        });\n        emit BalanceChanged(_user, _amount);\n    }\n    \n    \n}\n",
  "sourcePath": "C:\\Users\\NV\\Desktop\\project-II-blockchain-carpooling-system-master\\contracts\\RideContract.sol",
  "compiler": {
    "name": "solc",
    "version": "0.5.16+commit.9c3226ce.Emscripten.clang"
  },
  "schemaVersion": "3.4.16",
  "updatedAt": "2024-05-20T11:48:17.133Z",
  "networkType": "ethereum",
  "devdoc": {
    "methods": {}
  },
  "userdoc": {
    "methods": {}
  }
}